{
  "_format": "hh-sol-artifact-1",
  "contractName": "CustomToken",
  "sourceName": "contracts/CustomToken.sol",
  "abi": [
    {
      "inputs": [
        {
          "internalType": "string",
          "name": "name_",
          "type": "string"
        },
        {
          "internalType": "string",
          "name": "symbol_",
          "type": "string"
        },
        {
          "internalType": "uint8",
          "name": "decimals_",
          "type": "uint8"
        },
        {
          "internalType": "uint256",
          "name": "totalSupply_",
          "type": "uint256"
        }
      ],
      "stateMutability": "nonpayable",
      "type": "constructor"
    },
    {
      "anonymous": false,
      "inputs": [
        {
          "indexed": true,
          "internalType": "address",
          "name": "owner",
          "type": "address"
        },
        {
          "indexed": true,
          "internalType": "address",
          "name": "spender",
          "type": "address"
        },
        {
          "indexed": false,
          "internalType": "uint256",
          "name": "value",
          "type": "uint256"
        }
      ],
      "name": "Approval",
      "type": "event"
    },
    {
      "anonymous": false,
      "inputs": [
        {
          "indexed": true,
          "internalType": "address",
          "name": "from",
          "type": "address"
        },
        {
          "indexed": true,
          "internalType": "address",
          "name": "to",
          "type": "address"
        },
        {
          "indexed": false,
          "internalType": "uint256",
          "name": "value",
          "type": "uint256"
        }
      ],
      "name": "Transfer",
      "type": "event"
    },
    {
      "inputs": [
        {
          "internalType": "address",
          "name": "owner",
          "type": "address"
        },
        {
          "internalType": "address",
          "name": "spender",
          "type": "address"
        }
      ],
      "name": "allowance",
      "outputs": [
        {
          "internalType": "uint256",
          "name": "",
          "type": "uint256"
        }
      ],
      "stateMutability": "view",
      "type": "function"
    },
    {
      "inputs": [
        {
          "internalType": "address",
          "name": "spender",
          "type": "address"
        },
        {
          "internalType": "uint256",
          "name": "amount",
          "type": "uint256"
        }
      ],
      "name": "approve",
      "outputs": [
        {
          "internalType": "bool",
          "name": "",
          "type": "bool"
        }
      ],
      "stateMutability": "nonpayable",
      "type": "function"
    },
    {
      "inputs": [
        {
          "internalType": "address",
          "name": "account",
          "type": "address"
        }
      ],
      "name": "balanceOf",
      "outputs": [
        {
          "internalType": "uint256",
          "name": "",
          "type": "uint256"
        }
      ],
      "stateMutability": "view",
      "type": "function"
    },
    {
      "inputs": [],
      "name": "decimals",
      "outputs": [
        {
          "internalType": "uint8",
          "name": "",
          "type": "uint8"
        }
      ],
      "stateMutability": "view",
      "type": "function"
    },
    {
      "inputs": [
        {
          "internalType": "address",
          "name": "spender",
          "type": "address"
        },
        {
          "internalType": "uint256",
          "name": "subtractedValue",
          "type": "uint256"
        }
      ],
      "name": "decreaseAllowance",
      "outputs": [
        {
          "internalType": "bool",
          "name": "",
          "type": "bool"
        }
      ],
      "stateMutability": "nonpayable",
      "type": "function"
    },
    {
      "inputs": [
        {
          "internalType": "address",
          "name": "spender",
          "type": "address"
        },
        {
          "internalType": "uint256",
          "name": "addedValue",
          "type": "uint256"
        }
      ],
      "name": "increaseAllowance",
      "outputs": [
        {
          "internalType": "bool",
          "name": "",
          "type": "bool"
        }
      ],
      "stateMutability": "nonpayable",
      "type": "function"
    },
    {
      "inputs": [],
      "name": "name",
      "outputs": [
        {
          "internalType": "string",
          "name": "",
          "type": "string"
        }
      ],
      "stateMutability": "view",
      "type": "function"
    },
    {
      "inputs": [],
      "name": "owner",
      "outputs": [
        {
          "internalType": "address",
          "name": "",
          "type": "address"
        }
      ],
      "stateMutability": "view",
      "type": "function"
    },
    {
      "inputs": [
        {
          "internalType": "address payable",
          "name": "recipient",
          "type": "address"
        },
        {
          "internalType": "uint256",
          "name": "amount",
          "type": "uint256"
        }
      ],
      "name": "sendNative",
      "outputs": [],
      "stateMutability": "nonpayable",
      "type": "function"
    },
    {
      "inputs": [
        {
          "internalType": "address",
          "name": "recipient",
          "type": "address"
        },
        {
          "internalType": "uint256",
          "name": "amount",
          "type": "uint256"
        }
      ],
      "name": "sendToken",
      "outputs": [],
      "stateMutability": "nonpayable",
      "type": "function"
    },
    {
      "inputs": [],
      "name": "symbol",
      "outputs": [
        {
          "internalType": "string",
          "name": "",
          "type": "string"
        }
      ],
      "stateMutability": "view",
      "type": "function"
    },
    {
      "inputs": [],
      "name": "totalSupply",
      "outputs": [
        {
          "internalType": "uint256",
          "name": "",
          "type": "uint256"
        }
      ],
      "stateMutability": "view",
      "type": "function"
    },
    {
      "inputs": [
        {
          "internalType": "address",
          "name": "to",
          "type": "address"
        },
        {
          "internalType": "uint256",
          "name": "amount",
          "type": "uint256"
        }
      ],
      "name": "transfer",
      "outputs": [
        {
          "internalType": "bool",
          "name": "",
          "type": "bool"
        }
      ],
      "stateMutability": "nonpayable",
      "type": "function"
    },
    {
      "inputs": [
        {
          "internalType": "address",
          "name": "from",
          "type": "address"
        },
        {
          "internalType": "address",
          "name": "to",
          "type": "address"
        },
        {
          "internalType": "uint256",
          "name": "amount",
          "type": "uint256"
        }
      ],
      "name": "transferFrom",
      "outputs": [
        {
          "internalType": "bool",
          "name": "",
          "type": "bool"
        }
      ],
      "stateMutability": "nonpayable",
      "type": "function"
    },
    {
      "stateMutability": "payable",
      "type": "receive"
    }
  ],
  "bytecode": "0x608060405234801561001057600080fd5b5060405161212b38038061212b8339818101604052810190610032919061043b565b8383816003908161004391906106f1565b50806004908161005391906106f1565b505050836005908161006591906106f1565b50826006908161007591906106f1565b5081600760006101000a81548160ff021916908360ff16021790555033600760016101000a81548173ffffffffffffffffffffffffffffffffffffffff021916908373ffffffffffffffffffffffffffffffffffffffff1602179055506100e230826100eb60201b60201c565b505050506108cd565b600073ffffffffffffffffffffffffffffffffffffffff168273ffffffffffffffffffffffffffffffffffffffff160361015a576040517f08c379a000000000000000000000000000000000000000000000000000000000815260040161015190610820565b60405180910390fd5b61016c6000838361024d60201b60201c565b806002600082825461017e919061086f565b92505081905550806000808473ffffffffffffffffffffffffffffffffffffffff1673ffffffffffffffffffffffffffffffffffffffff168152602001908152602001600020600082825401925050819055508173ffffffffffffffffffffffffffffffffffffffff16600073ffffffffffffffffffffffffffffffffffffffff167fddf252ad1be2c89b69c2b068fc378daa952ba7f163c4a11628f55a4df523b3ef8360405161022f91906108b2565b60405180910390a36102496000838361025260201b60201c565b5050565b505050565b505050565b6000604051905090565b600080fd5b600080fd5b600080fd5b600080fd5b6000601f19601f8301169050919050565b7f4e487b7100000000000000000000000000000000000000000000000000000000600052604160045260246000fd5b6102be82610275565b810181811067ffffffffffffffff821117156102dd576102dc610286565b5b80604052505050565b60006102f0610257565b90506102fc82826102b5565b919050565b600067ffffffffffffffff82111561031c5761031b610286565b5b61032582610275565b9050602081019050919050565b60005b83811015610350578082015181840152602081019050610335565b60008484015250505050565b600061036f61036a84610301565b6102e6565b90508281526020810184848401111561038b5761038a610270565b5b610396848285610332565b509392505050565b600082601f8301126103b3576103b261026b565b5b81516103c384826020860161035c565b91505092915050565b600060ff82169050919050565b6103e2816103cc565b81146103ed57600080fd5b50565b6000815190506103ff816103d9565b92915050565b6000819050919050565b61041881610405565b811461042357600080fd5b50565b6000815190506104358161040f565b92915050565b6000806000806080858703121561045557610454610261565b5b600085015167ffffffffffffffff81111561047357610472610266565b5b61047f8782880161039e565b945050602085015167ffffffffffffffff8111156104a05761049f610266565b5b6104ac8782880161039e565b93505060406104bd878288016103f0565b92505060606104ce87828801610426565b91505092959194509250565b600081519050919050565b7f4e487b7100000000000000000000000000000000000000000000000000000000600052602260045260246000fd5b6000600282049050600182168061052c57607f821691505b60208210810361053f5761053e6104e5565b5b50919050565b60008190508160005260206000209050919050565b60006020601f8301049050919050565b600082821b905092915050565b6000600883026105a77fffffffffffffffffffffffffffffffffffffffffffffffffffffffffffffffff8261056a565b6105b1868361056a565b95508019841693508086168417925050509392505050565b6000819050919050565b60006105ee6105e96105e484610405565b6105c9565b610405565b9050919050565b6000819050919050565b610608836105d3565b61061c610614826105f5565b848454610577565b825550505050565b600090565b610631610624565b61063c8184846105ff565b505050565b5b8181101561066057610655600082610629565b600181019050610642565b5050565b601f8211156106a55761067681610545565b61067f8461055a565b8101602085101561068e578190505b6106a261069a8561055a565b830182610641565b50505b505050565b600082821c905092915050565b60006106c8600019846008026106aa565b1980831691505092915050565b60006106e183836106b7565b9150826002028217905092915050565b6106fa826104da565b67ffffffffffffffff81111561071357610712610286565b5b61071d8254610514565b610728828285610664565b600060209050601f83116001811461075b5760008415610749578287015190505b61075385826106d5565b8655506107bb565b601f19841661076986610545565b60005b828110156107915784890151825560018201915060208501945060208101905061076c565b868310156107ae57848901516107aa601f8916826106b7565b8355505b6001600288020188555050505b505050505050565b600082825260208201905092915050565b7f45524332303a206d696e7420746f20746865207a65726f206164647265737300600082015250565b600061080a601f836107c3565b9150610815826107d4565b602082019050919050565b60006020820190508181036000830152610839816107fd565b9050919050565b7f4e487b7100000000000000000000000000000000000000000000000000000000600052601160045260246000fd5b600061087a82610405565b915061088583610405565b925082820190508082111561089d5761089c610840565b5b92915050565b6108ac81610405565b82525050565b60006020820190506108c760008301846108a3565b92915050565b61184f806108dc6000396000f3fe6080604052600436106100e15760003560e01c8063668075661161007f57806395d89b411161005957806395d89b41146102df578063a457c2d71461030a578063a9059cbb14610347578063dd62ed3e14610384576100e8565b8063668075661461024e57806370a08231146102775780638da5cb5b146102b4576100e8565b806323b872dd116100bb57806323b872dd14610180578063313ce567146101bd57806339509351146101e8578063412664ae14610225576100e8565b806306fdde03146100ed578063095ea7b31461011857806318160ddd14610155576100e8565b366100e857005b600080fd5b3480156100f957600080fd5b506101026103c1565b60405161010f9190610eae565b60405180910390f35b34801561012457600080fd5b5061013f600480360381019061013a9190610f69565b610453565b60405161014c9190610fc4565b60405180910390f35b34801561016157600080fd5b5061016a610476565b6040516101779190610fee565b60405180910390f35b34801561018c57600080fd5b506101a760048036038101906101a29190611009565b610480565b6040516101b49190610fc4565b60405180910390f35b3480156101c957600080fd5b506101d26104af565b6040516101df9190611078565b60405180910390f35b3480156101f457600080fd5b5061020f600480360381019061020a9190610f69565b6104c6565b60405161021c9190610fc4565b60405180910390f35b34801561023157600080fd5b5061024c60048036038101906102479190610f69565b6104fd565b005b34801561025a57600080fd5b50610275600480360381019061027091906110d1565b61059c565b005b34801561028357600080fd5b5061029e60048036038101906102999190611111565b610720565b6040516102ab9190610fee565b60405180910390f35b3480156102c057600080fd5b506102c9610768565b6040516102d6919061114d565b60405180910390f35b3480156102eb57600080fd5b506102f461078e565b6040516103019190610eae565b60405180910390f35b34801561031657600080fd5b50610331600480360381019061032c9190610f69565b610820565b60405161033e9190610fc4565b60405180910390f35b34801561035357600080fd5b5061036e60048036038101906103699190610f69565b610897565b60405161037b9190610fc4565b60405180910390f35b34801561039057600080fd5b506103ab60048036038101906103a69190611168565b6108ba565b6040516103b89190610fee565b60405180910390f35b6060600580546103d0906111d7565b80601f01602080910402602001604051908101604052809291908181526020018280546103fc906111d7565b80156104495780601f1061041e57610100808354040283529160200191610449565b820191906000526020600020905b81548152906001019060200180831161042c57829003601f168201915b5050505050905090565b60008061045e610941565b905061046b818585610949565b600191505092915050565b6000600254905090565b60008061048b610941565b9050610498858285610b12565b6104a3858585610b9e565b60019150509392505050565b6000600760009054906101000a900460ff16905090565b6000806104d1610941565b90506104f28185856104e385896108ba565b6104ed9190611237565b610949565b600191505092915050565b600760019054906101000a900473ffffffffffffffffffffffffffffffffffffffff1673ffffffffffffffffffffffffffffffffffffffff163373ffffffffffffffffffffffffffffffffffffffff161461058d576040517f08c379a0000000000000000000000000000000000000000000000000000000008152600401610584906112dd565b60405180910390fd5b610598308383610b9e565b5050565b600760019054906101000a900473ffffffffffffffffffffffffffffffffffffffff1673ffffffffffffffffffffffffffffffffffffffff163373ffffffffffffffffffffffffffffffffffffffff161461062c576040517f08c379a0000000000000000000000000000000000000000000000000000000008152600401610623906112dd565b60405180910390fd5b8047101561066f576040517f08c379a00000000000000000000000000000000000000000000000000000000081526004016106669061136f565b60405180910390fd5b60008273ffffffffffffffffffffffffffffffffffffffff1682604051610695906113c0565b60006040518083038185875af1925050503d80600081146106d2576040519150601f19603f3d011682016040523d82523d6000602084013e6106d7565b606091505b505090508061071b576040517f08c379a000000000000000000000000000000000000000000000000000000000815260040161071290611421565b60405180910390fd5b505050565b60008060008373ffffffffffffffffffffffffffffffffffffffff1673ffffffffffffffffffffffffffffffffffffffff168152602001908152602001600020549050919050565b600760019054906101000a900473ffffffffffffffffffffffffffffffffffffffff1681565b60606006805461079d906111d7565b80601f01602080910402602001604051908101604052809291908181526020018280546107c9906111d7565b80156108165780601f106107eb57610100808354040283529160200191610816565b820191906000526020600020905b8154815290600101906020018083116107f957829003601f168201915b5050505050905090565b60008061082b610941565b9050600061083982866108ba565b90508381101561087e576040517f08c379a0000000000000000000000000000000000000000000000000000000008152600401610875906114b3565b60405180910390fd5b61088b8286868403610949565b60019250505092915050565b6000806108a2610941565b90506108af818585610b9e565b600191505092915050565b6000600160008473ffffffffffffffffffffffffffffffffffffffff1673ffffffffffffffffffffffffffffffffffffffff16815260200190815260200160002060008373ffffffffffffffffffffffffffffffffffffffff1673ffffffffffffffffffffffffffffffffffffffff16815260200190815260200160002054905092915050565b600033905090565b600073ffffffffffffffffffffffffffffffffffffffff168373ffffffffffffffffffffffffffffffffffffffff16036109b8576040517f08c379a00000000000000000000000000000000000000000000000000000000081526004016109af90611545565b60405180910390fd5b600073ffffffffffffffffffffffffffffffffffffffff168273ffffffffffffffffffffffffffffffffffffffff1603610a27576040517f08c379a0000000000000000000000000000000000000000000000000000000008152600401610a1e906115d7565b60405180910390fd5b80600160008573ffffffffffffffffffffffffffffffffffffffff1673ffffffffffffffffffffffffffffffffffffffff16815260200190815260200160002060008473ffffffffffffffffffffffffffffffffffffffff1673ffffffffffffffffffffffffffffffffffffffff168152602001908152602001600020819055508173ffffffffffffffffffffffffffffffffffffffff168373ffffffffffffffffffffffffffffffffffffffff167f8c5be1e5ebec7d5bd14f71427d1e84f3dd0314c0f7b2291e5b200ac8c7c3b92583604051610b059190610fee565b60405180910390a3505050565b6000610b1e84846108ba565b90507fffffffffffffffffffffffffffffffffffffffffffffffffffffffffffffffff8114610b985781811015610b8a576040517f08c379a0000000000000000000000000000000000000000000000000000000008152600401610b8190611643565b60405180910390fd5b610b978484848403610949565b5b50505050565b600073ffffffffffffffffffffffffffffffffffffffff168373ffffffffffffffffffffffffffffffffffffffff1603610c0d576040517f08c379a0000000000000000000000000000000000000000000000000000000008152600401610c04906116d5565b60405180910390fd5b600073ffffffffffffffffffffffffffffffffffffffff168273ffffffffffffffffffffffffffffffffffffffff1603610c7c576040517f08c379a0000000000000000000000000000000000000000000000000000000008152600401610c7390611767565b60405180910390fd5b610c87838383610e14565b60008060008573ffffffffffffffffffffffffffffffffffffffff1673ffffffffffffffffffffffffffffffffffffffff16815260200190815260200160002054905081811015610d0d576040517f08c379a0000000000000000000000000000000000000000000000000000000008152600401610d04906117f9565b60405180910390fd5b8181036000808673ffffffffffffffffffffffffffffffffffffffff1673ffffffffffffffffffffffffffffffffffffffff16815260200190815260200160002081905550816000808573ffffffffffffffffffffffffffffffffffffffff1673ffffffffffffffffffffffffffffffffffffffff168152602001908152602001600020600082825401925050819055508273ffffffffffffffffffffffffffffffffffffffff168473ffffffffffffffffffffffffffffffffffffffff167fddf252ad1be2c89b69c2b068fc378daa952ba7f163c4a11628f55a4df523b3ef84604051610dfb9190610fee565b60405180910390a3610e0e848484610e19565b50505050565b505050565b505050565b600081519050919050565b600082825260208201905092915050565b60005b83811015610e58578082015181840152602081019050610e3d565b60008484015250505050565b6000601f19601f8301169050919050565b6000610e8082610e1e565b610e8a8185610e29565b9350610e9a818560208601610e3a565b610ea381610e64565b840191505092915050565b60006020820190508181036000830152610ec88184610e75565b905092915050565b600080fd5b600073ffffffffffffffffffffffffffffffffffffffff82169050919050565b6000610f0082610ed5565b9050919050565b610f1081610ef5565b8114610f1b57600080fd5b50565b600081359050610f2d81610f07565b92915050565b6000819050919050565b610f4681610f33565b8114610f5157600080fd5b50565b600081359050610f6381610f3d565b92915050565b60008060408385031215610f8057610f7f610ed0565b5b6000610f8e85828601610f1e565b9250506020610f9f85828601610f54565b9150509250929050565b60008115159050919050565b610fbe81610fa9565b82525050565b6000602082019050610fd96000830184610fb5565b92915050565b610fe881610f33565b82525050565b60006020820190506110036000830184610fdf565b92915050565b60008060006060848603121561102257611021610ed0565b5b600061103086828701610f1e565b935050602061104186828701610f1e565b925050604061105286828701610f54565b9150509250925092565b600060ff82169050919050565b6110728161105c565b82525050565b600060208201905061108d6000830184611069565b92915050565b600061109e82610ed5565b9050919050565b6110ae81611093565b81146110b957600080fd5b50565b6000813590506110cb816110a5565b92915050565b600080604083850312156110e8576110e7610ed0565b5b60006110f6858286016110bc565b925050602061110785828601610f54565b9150509250929050565b60006020828403121561112757611126610ed0565b5b600061113584828501610f1e565b91505092915050565b61114781610ef5565b82525050565b6000602082019050611162600083018461113e565b92915050565b6000806040838503121561117f5761117e610ed0565b5b600061118d85828601610f1e565b925050602061119e85828601610f1e565b9150509250929050565b7f4e487b7100000000000000000000000000000000000000000000000000000000600052602260045260246000fd5b600060028204905060018216806111ef57607f821691505b602082108103611202576112016111a8565b5b50919050565b7f4e487b7100000000000000000000000000000000000000000000000000000000600052601160045260246000fd5b600061124282610f33565b915061124d83610f33565b925082820190508082111561126557611264611208565b5b92915050565b7f4f6e6c79206f776e65722063616e2063616c6c20746869732066756e6374696f60008201527f6e00000000000000000000000000000000000000000000000000000000000000602082015250565b60006112c7602183610e29565b91506112d28261126b565b604082019050919050565b600060208201905081810360008301526112f6816112ba565b9050919050565b7f436f6e74726163742773206e61746976652062616c616e636520697320696e7360008201527f756666696369656e740000000000000000000000000000000000000000000000602082015250565b6000611359602983610e29565b9150611364826112fd565b604082019050919050565b600060208201905081810360008301526113888161134c565b9050919050565b600081905092915050565b50565b60006113aa60008361138f565b91506113b58261139a565b600082019050919050565b60006113cb8261139d565b9150819050919050565b7f4e617469766520746f6b656e207472616e73666572206661696c656400000000600082015250565b600061140b601c83610e29565b9150611416826113d5565b602082019050919050565b6000602082019050818103600083015261143a816113fe565b9050919050565b7f45524332303a2064656372656173656420616c6c6f77616e63652062656c6f7760008201527f207a65726f000000000000000000000000000000000000000000000000000000602082015250565b600061149d602583610e29565b91506114a882611441565b604082019050919050565b600060208201905081810360008301526114cc81611490565b9050919050565b7f45524332303a20617070726f76652066726f6d20746865207a65726f2061646460008201527f7265737300000000000000000000000000000000000000000000000000000000602082015250565b600061152f602483610e29565b915061153a826114d3565b604082019050919050565b6000602082019050818103600083015261155e81611522565b9050919050565b7f45524332303a20617070726f766520746f20746865207a65726f20616464726560008201527f7373000000000000000000000000000000000000000000000000000000000000602082015250565b60006115c1602283610e29565b91506115cc82611565565b604082019050919050565b600060208201905081810360008301526115f0816115b4565b9050919050565b7f45524332303a20696e73756666696369656e7420616c6c6f77616e6365000000600082015250565b600061162d601d83610e29565b9150611638826115f7565b602082019050919050565b6000602082019050818103600083015261165c81611620565b9050919050565b7f45524332303a207472616e736665722066726f6d20746865207a65726f20616460008201527f6472657373000000000000000000000000000000000000000000000000000000602082015250565b60006116bf602583610e29565b91506116ca82611663565b604082019050919050565b600060208201905081810360008301526116ee816116b2565b9050919050565b7f45524332303a207472616e7366657220746f20746865207a65726f206164647260008201527f6573730000000000000000000000000000000000000000000000000000000000602082015250565b6000611751602383610e29565b915061175c826116f5565b604082019050919050565b6000602082019050818103600083015261178081611744565b9050919050565b7f45524332303a207472616e7366657220616d6f756e742065786365656473206260008201527f616c616e63650000000000000000000000000000000000000000000000000000602082015250565b60006117e3602683610e29565b91506117ee82611787565b604082019050919050565b60006020820190508181036000830152611812816117d6565b905091905056fea2646970667358221220dde2c59919a5e4fc036d7a9f9d058030cd768bda8b64be378612cbeeb6baeb7d64736f6c634300081c0033",
  "linkReferences": {},
  "deployedLinkReferences": {}
}